:020000040804EE
:1000000078AA0120050D04080D0D04080F0D040841
:10001000110D0408130D0408150D0408000000005C
:10002000000000000000000000000000170D0408A0
:10003000190D0408000000001B0D04081D0D040824
:100040001F0D04081F0D04081F0D04081F0D0408D0
:100050001F0D04081F0D04081F0D04081F0D0408C0
:100060001F0D04081F0D04081F0D04081F0D0408B0
:100070001F0D04081F0D04081F0D04081F0D0408A0
:100080001F0D04081F0D04081F0D04081F0D040890
:100090001F0D04081F0D04081F0D04081F0D040880
:1000A0001F0D04081F0D04081F0D04081F0D040870
:1000B0001F0D04081F0D04081F0D04081F0D040860
:1000C0001F0D04081F0D04081F0D04081F0D040850
:1000D0001F0D04081F0D04081F0D04081F0D040840
:1000E0001F0D04081F0D04081F0D04081F0D040830
:1000F0001F0D04081F0D04081F0D04081F0D040820
:100100001F0D04081F0D04081F0D04081F0D04080F
:100110001F0D04081F0D04081F0D04081F0D0408FF
:100120001F0D04081F0D04081F0D04081F0D0408EF
:100130001F0D04081F0D04081F0D04081F0D0408DF
:100140001F0D04081F0D04081F0D04081F0D0408CF
:100150001F0D04081F0D04081F0D04081F0D0408BF
:100160001F0D04081F0D04081F0D04081F0D0408AF
:100170001F0D04081F0D04081F0D04081F0D04089F
:100180001F0D04081F0D040800F002F800F03CF8F1
:100190000AA090E8000C82448344AAF10107DA45E2
:1001A00001D100F031F8AFF2090EBAE80F0013F0F8
:1001B000010F18BFFB1A43F001031847781800001D
:1001C00098180000103A24BF78C878C1FAD85207AE
:1001D00024BF30C830C144BF04680C6070470000C1
:1001E0000023002400250026103A28BF78C1FBD840
:1001F000520728BF30C148BF0B6070471FB500F0E1
:10020000E2FE1FBD10B510BD00F0A7FE1146FFF7BE
:10021000F5FF00F019F900F0C5FE03B4FFF7F2FF97
:1002200003BC00F0C9FE00004FF0E021096921F095
:1002300004014FF0E0221161C21700EB5272C2F3C9
:10024000C702314B1A701946097801EB4102C2EB23
:10025000C1114FF6FF7202EAC1012C4A11807047AA
:100260000146294A12784A434FF0E0235A6100229E
:100270009A6101221A6100BF4FF0E022106900F07C
:1002800001021AB100F48032002AF5D000224FF0AA
:10029000E0231A619A61704701461C4A12884A435A
:1002A0004FF0E0235A6100229A6101221A6100BFD7
:1002B0004FF0E022106900F001021AB100F4803220
:1002C000002AF5D000224FF0E0231A619A617047AE
:1002D00070B504464FF4077094FBF0F0C6B24FF4CB
:1002E000077094FBF0F100FB114085B205E04FF47C
:1002F0000770FFF7D1FF701EC6B2002EF7D115B1FF
:100300002846FFF7C9FF70BD00A0012002A0012010
:10031000014600BF4848008900F002000028F9D0DB
:100320004548818100BF4448008900F00100002851
:10033000F9D041488089C0B270471CB53F48006879
:1003400040F002003D4908603C481430006840F429
:1003500080503A4914310860012003210023022211
:10036000CDE900103821364800F060FB0120032160
:1003700000230246CDE90010314800F057FB05226A
:1003800003212F4800F032FB052204212C4800F005
:100390002DFB052211462A4800F028FB05220F21DB
:1003A000284800F023FB25480C38006840F48050B2
:1003B00022490C3908600846006820F48050086023
:1003C00000201D49088088800846808840F004008D
:1003D000888008460088088008460088088008460B
:1003E000008840F4807008800846008840F00400CF
:1003F00008800846008808800846008840F002000F
:1004000008800846008840F00100088008460088FF
:1004100040F03800088008460088088008460088B8
:1004200040F0400008800846808B20F400608883FC
:10043000FF20FFF76DFF1CBD003001403038024047
:1004400000040240000002401CB51B481B49086024
:100450000723022208214FF4A87000F00BFCA8200B
:10046000FFF7E2FE1648006840F0FF0014490860FC
:100470000120032100230246CDE900101821114874
:1004800000F0D4FA104800681048D0F89002FFF746
:1004900054FF00F081F900F072F80DA20021084627
:1004A00000F058F90AA21421002000F053F900F0DE
:1004B00027F800BFFEE700007F03C000382C014092
:1004C00030380240001002408C024242000042429A
:1004D00031323334353637383930000070B505469F
:1004E0000C461CB10120E949086002E00020E74900
:1004F00008602846FFF70CFF0120E449086070BD42
:1005000070B500241CE004F1B001C8B20021FFF76F
:10051000E5FF00210846FFF7E1FF00211020FFF76B
:10052000DDFF002508E0DA4901EBC501085D012186
:10053000FFF7D4FF681CC5B2802DF4DB601CC4B289
:10054000082CE0DB70BD10B500218D20FFF7C6FF41
:1005500000211420FFF7C2FF0021AF20FFF7BEFFEC
:1005600010BD10B500218D20FFF7B8FF002110202D
:10057000FFF7B4FF0021AE20FFF7B0FF10BD70B54C
:1005800000240CE0002506E00020C14901EBC50174
:100590000855681CC5B2802DF6DB601CC4B2082C5F
:1005A000F0DBFFF7ADFF70BDF0B5144600267F28E5
:1005B00001DC3F2900DDF0BD0B46CF1701EB57777B
:1005C000FF10C7F10707FAB2CF1701EB5777FF10FB
:1005D000A1EBC707FDB2C5F107070123BB40DEB29F
:1005E0004CB1AB4B03EBC0039B5C3343A84F07EB11
:1005F000C007BB5408E0A64B03EBC0039B5CB343AE
:10060000A34F07EBC007BB5400BFD4E72DE9F04F61
:1006100080460C4615461E46A346A5F12000C5B2ED
:1006200000273EE00C2E07D105EB4500994901EB70
:10063000800010F8079004E0974800EB051010F8D0
:1006400007904FF0000A26E009F0800028B121460B
:100650004046099AFFF7A8FF09E0099808B9012068
:1006600000E00020024621464046FFF79DFF4FEA8A
:1006700049604FEA1069601CC4B2A4EB0B00B042A1
:1006800005D15C4608F1010000F0FF0806E00AF120
:10069000010000F0FF0ABAF1080FD5DB00BF781C9B
:1006A000C7B2B742BEDBBDE8F08F10B502460120ED
:1006B00000E050430B00A1F10104E1B2F9D110BDFB
:1006C0002DE9FF4F81B0074691461E460E9D4FF023
:1006D000000A002439E0301B401EC1B20A20FFF797
:1006E000E4FFB9FBF0F00A21B0FBF1F201FB1208C4
:1006F000BAF1000F16D1701EA04213DDB8F1000F41
:100700000ED10120AB4605EBDB71491001FB0471F2
:100710000090C8B22B4620220299FFF777FF12E023
:100720004FF0010A0120AB4605EBDB71491001FBDC
:1007300004710090C8B208F13001CAB22B46029988
:10074000FFF764FF00BF601CC4B2B442C3DB05B056
:10075000BDE8F08FF8B505460E46144618E07A2D30
:1007600003DD002506F11000C6B23A2E04DD00209C
:1007700005460646FFF703FF0120009022780C2370
:1007800031462846FFF742FF05F10800C5B2641C58
:1007900020780028E3D1F8BD10B501203B49091F9E
:1007A00008606420FFF794FD00203C49C1F88002F6
:1007B0006420FFF78DFD01203449091F08600021E6
:1007C000AE20FFF78BFE0021D520FFF787FE00212A
:1007D0005020FFF783FE0021A820FFF77FFE0021B5
:1007E0003F20FFF77BFE0021D320FFF777FE00219B
:1007F0000846FFF773FE00214020FFF76FFE00213F
:100800008D20FFF76BFE00211420FFF767FE00210B
:100810002020FFF763FE00210220FFF75FFE00218A
:10082000A120FFF75BFE0021C020FFF757FE00214B
:10083000DA20FFF753FE00211220FFF74FFE0021C0
:100840008120FFF74BFE0021EF20FFF747FE00213C
:10085000D920FFF743FE0021F120FFF73FFE0021E2
:10086000DB20FFF73BFE00213020FFF737FE0021A1
:10087000A420FFF733FE0021A620FFF72FFE002162
:10088000AF20FFF72BFEFFF77AFE10BD84824042B7
:1008900018A00120D00F040844140408008040422E
:1008A0004A0A52020243FE4B1A6070470146072370
:1008B00023EA01021202FA4B1B1D18684FF6FF03D0
:1008C0001840F84B18431043F54B1B1D1860704738
:1008D0002DE9F0410746884614461D462846FFF795
:1008E000E5FFC5F1040007FA00F60F20284100EAF1
:1008F0000800064306F00F06E21704EBD26252111D
:10090000920002F1E022D2F800212146E31704EB25
:10091000D3635B11A4EB431C012303FA0CF31A43CA
:100920002046E31704EBD3635B119B0003F1E02344
:10093000C3F80021DC48005D40EA0610DA4908559A
:10094000BDE8F081F0B503460846CD1701EB95757B
:10095000AD10A1EB8505AD062C0ED448006840F41F
:100960008040D24D2860CD1701EB9575AE10D04D6B
:1009700055F826500F26A640B5430846CE1701EB82
:100980009676B710CA4E46F82750CD1701EB9575ED
:10099000AE10C74D55F8265003FA04F63543CE176E
:1009A00001EB9676B710C24E46F82750C148006852
:1009B00001258D402843BF4D286002F0010040B161
:1009C000BC480C30006801258D402843B94D0C35DA
:1009D000286002F0020040B1B648083000680125E6
:1009E0008D402843B34D08352860F0BD30B5CC109C
:1009F00000F1200353F824304C07E50E0F24AC40DF
:100A0000A343CD1000F1200444F82530CC1000F1B0
:100A1000200353F824304C07E40E02FA04F4234375
:100A2000CD1000F1200444F8253030BD2DE9F04709
:100A30000C46DDE90867002100258C4600BF60E018
:100A40004FF0010808FA01F504EA050CAC4557D14E
:100A5000D0F800804FEA410A4FF0030909FA0AF979
:100A600028EA0908C0F80080D0F800804FEA410960
:100A700002FA09F948EA0908C0F80080012A01D001
:100A8000022A27D1D0F808804FEA410A4FF0030923
:100A900009FA0AF928EA0908C0F80880D0F808809D
:100AA0004FEA410906FA09F948EA0908C0F808803E
:100AB000D0F804904FF0010808FA01F829EA080973
:100AC000C0F80490D0F8048003FA01F948EA090854
:100AD000C0F80480D0F80C804FEA410A4FF00309B7
:100AE00009FA0AF928EA0908C0F80C80D0F80C8045
:100AF0004FEA410907FA09F948EA0908C0F80C80E9
:100B0000491C10299CD3BDE8F08730BF704772B6EE
:100B1000704762B6704700B561480830006840F021
:100B200004005F49083108606048001F006840F019
:100B300080505E49091F08605F48406840F480703B
:100B40005D4948600846006840F0040008600846B7
:100B5000006840F002000860FFF7D7FF00BD514871
:100B6000001D4F49091D08607047F0B504460D4649
:100B7000002100204D4E443E366846F480364B4FEF
:100B8000443F3E6001E04E1CB1B2484E443E3668E0
:100B900006F400361EB941F6FF76B142F3DB41F6AA
:100BA000FF76B14201D1012063E0404E361F366826
:100BB00046F080563D4F3F1F3E603F4E366846F43C
:100BC00040463D4F3E60394E3C3E366846F4144642
:100BD000364F3C3F3E60354E443E366826F08076C8
:100BE000324F443F3E6045EA84160127C7EB520767
:100BF00046EA074646EA036646F480062B4F403F26
:100C00003E603E1F366846F080763F1F3E6000BF64
:100C1000264E443E366806F00076002EF8D0274E69
:100C2000366846F48076254F3E603E46366846F488
:100C300000763E603E46366846F480663E603E463C
:100C4000366846F005063E60184E3C3E366826F093
:100C50000306164F3C3F3E603E46366846F00206AD
:100C60003E6000BF114E3C3E366806F00C06082E72
:100C7000F8D1F0BDF0B504460D4616461F460B48A8
:100C80004438006840F001000849443908600020F9
:100C900006493C390860054844380068084911E0B5
:100CA00008ED00E00000FA0500E400E044380240EE
:100CB00008380140003C014000700040003C024008
:100CC000FFFFF6FE08400D4908600D48091D086049
:100CD000081F006820F48020091F086000200749D1
:100CE0000C3108603B46324629462046FFF73DFF5F
:100CF0004FF480210020FFF7D3FDF0BD0038024003
:100D0000103000240948804709480047FEE7FEE705
:100D1000FEE7FEE7FEE7FEE7FEE7FEE7FEE7FEE7AB
:100D200004480549054A064B70470000210E040897
:100D30008901040878A4012078AA012078A601205E
:100D400078A601200CB5002001900090764800683C
:100D500040F480307449086000BF7348006800F4B4
:100D6000003000900198401C0190009818B901983B
:100D7000B0F5A04FF1D16C48006800F4003010B11C
:100D80000120009001E0002000900098012846D149
:100D900065484030006840F0805063494031086049
:100DA0006248006840F44040604908605E4808308E
:100DB00000685D49083108600846006840F400405A
:100DC00008600846006840F4A05008605848091FB1
:100DD0000860081F006840F08070091F086000BFAD
:100DE0005148006800F000700028F9D040F205700A
:100DF000504908604C480830006820F003004A4918
:100E0000083108600846006840F00200086000BF32
:100E100045480830006800F00C000828F8D10CBDE7
:100E200010B54548006840F47000434908603E48EA
:100E3000006840F001003C49086000203A49083150
:100E40000860394800683D490840374908603C4817
:100E5000091D0860081F006820F48020091F086031
:100E6000002031490C310860FFF76CFF4FF0006043
:100E700031498039086010BD70B50020002202237E
:100E800000240221284D08352D6805F00C0020B102
:100E9000042806D0082834D107E02A4D2A4E3560B0
:100EA00033E02A4D284E35602FE01F4D2D1D2D6853
:100EB000C5F380541C4D2D1D2D6805F03F0154B124
:100EC000224DB5FBF1F5184E361D3668C6F388166F
:100ED00005FB06F209E01B4DB5FBF1F5124E361D80
:100EE0003668C6F3881605FB06F20F4D2D1D2D68DA
:100EF000C5F301456D1C6B00B2FBF3F5124E356076
:100F000003E0104D104E356000BF00BF064D0835A0
:100F10002D68C5F303150E4E705D0B4D2D68C54051
:100F2000094E356070BD000000380240007000407E
:100F300019544007003C024088ED00E0FFFFF6FE38
:100F4000103000240024F40004A0012040787D012A
:100F500008A00120704770477047754600F028F8D8
:100F6000AE4605006946534620F00700854618B096
:100F700020B5FFF7D5FEBDE820404FF000064FF04A
:100F800000074FF000084FF0000B21F00701AC46BE
:100F9000ACE8C009ACE8C009ACE8C009ACE8C009DD
:100FA0008D4670470446AFF300802046FFF735F9C1
:100FB0000048704718A4012001491820ABBEFEE785
:100FC0002600020070474FF04070E1EE100A7047B3
:100FD0000000000000000000000000000000000011
:100FE0003F400000000000000000300040003000E2
:100FF0004000000009000BC03D000BC03D0009008F
:1010000018C024407FE0224031800000180024C036
:101010001B000D803240018003801C4027401C8053
:1010200007400040100060000000000000000000C9
:101030000000000000001F802040402000004020F1
:1010400020401F8000000000090006001F800600ED
:1010500009000000040004003F80040004000000B8
:101060000010006000000000000000000400040008
:101070000400040004000000000000400000000024
:1010800000000000002001C0060038004000000001
:101090001F802040204020401F80000000001040A2
:1010A0003FC000400000000018C021402240244002
:1010B0001840000010802040244024401B80000085
:1010C00002000D0011003FC0014000003C802440A0
:1010D00024402440238000001F80244024403440CA
:1010E000038000003000200027C0380020000000EE
:1010F0001B802440244024401B8000001C0022C090
:10110000224022401F800000000000000840000034
:10111000000000000000000004600000000000006B
:10112000000004000A00110020804040090009006E
:101130000900090009000000000040402080110063
:101140000A000400180020002340240018000000BA
:101150001F802040274029401F400000004007C05A
:1011600039000F0001C0004020403FC0244024400F
:101170001B8000001F802040204020403080000065
:1011800020403FC0204020401F80000020403FC042
:1011900024402E4030C0000020403FC024402E009C
:1011A000300000000F0010802040224033800200F9
:1011B00020403FC0040004003FC0204020402040A9
:1011C0003FC02040204000000060202020203FC081
:1011D0002000200020403FC024400B0030C02040B1
:1011E00020403FC020400040004000C03FC03C00C5
:1011F00003C03C003FC0000020403FC00C40230023
:101200003FC020001F802040204020401F80000061
:1012100020403FC024402400180000001F802140CF
:10122000214020E01FA0000020403FC024402600B5
:1012300019C0004018C024402440224031800000E2
:10124000300020403FC020403000000020003F80A0
:10125000004000403F80200020003E0001C0070009
:1012600038002000380007C03C0007C038000000EC
:10127000204039C0060039C020400000200038401E
:1012800007C0384020000000304021C026403840D0
:1012900020C00000000000007FE04020402000004F
:1012A000000070000C00038000400000000040209F
:1012B00040207FE0000000000000200040002000EF
:1012C00000000000001000100010001000100010BE
:1012D000000000004000000000000000000002804C
:1012E0000540054003C0004020003FC004400440CA
:1012F000038000000000038004400440064000001A
:1013000000000380044024403FC0004000000380F0
:101310000540054003400000000004401FC0244079
:1013200024402000000002E0055005500650042033
:1013300020403FC00440040003C0004000000440BF
:1013400027C000400000000000100010041027E03B
:101350000000000020403FC00140070004C00440DE
:10136000204020403FC000400040000007C0040073
:1013700007C0040003C00000044007C0044004008C
:1013800003C00040000003800440044003800000CC
:10139000041007F0045004400380000000000380A4
:1013A0000440045007F00010044007C0024004004D
:1013B00004000000000006400540054004C0000095
:1013C000000004001F80044000400000040007806B
:1013D0000040044007C000400400070004C0018032
:1013E00006000400060001C0070001C0060000005E
:1013F000044006C0010006C00440000004100710AD
:1014000004E00180060004000000044005C006401E
:10141000044000000000000004007BE040200000C9
:10142000000000000000FFF000000000000040206D
:101430007BE004000000000040008000400020002D
:10144000200040000000000000000000000000003C
:10145000000000000000000000001FCC000C000095
:1014600000000000000008003000600008003000AC
:1014700060000000022003FC1E20022003FC1E204E
:101480000220000000000E1811043FFF10840C78A9
:10149000000000000F0010840F3800C00778188487
:1014A0000078000000780F8410C411240E9800E426
:1014B00000840008080068007000000000000000C0
:1014C0000000000000000000000007E018182004E1
:1014D00040020000000040022004181807E000004D
:1014E000000000000240024001800FF00180024035
:1014F000024000000080008000800FF80080008023
:10150000008000000001000D000E0000000000003F
:10151000000000000000008000800080008000804B
:10152000008000800000000C000C000000000000A3
:1015300000000000000000060018006001800600A6
:1015400018002000000007F0080810041004080824
:1015500007F000000000080408041FFC0004000459
:101560000000000000000E0C101410241044118420
:101570000E0C000000000C18100411041104128855
:101580000C700000000000E00320042408241FFC6D
:101590000024000000001F9810841104110410881A
:1015A00010700000000007F008881104110418886A
:1015B0000070000000001C00100010FC13001C0054
:1015C0001000000000000E381144108410841144F3
:1015D0000E38000000000700088C104410440888F2
:1015E00007F00000000000000000030C030C0000E6
:1015F00000000000000000000001010600000000E3
:1016000000000000000000800140022004100808D3
:1016100010040000022002200220022002200220EA
:1016200002200000000010040808041002200140FD
:101630000080000000000E001200100C106C1080E2
:101640000F00000003E00C1813E4142417C408284A
:1016500007D000000004003C03C41C40074000E425
:10166000001C000410041FFC1104110411040E8856
:101670000070000003E00C1810041004100410089F
:101680001C10000010041FFC1004100410040808B3
:1016900007F0000010041FFC1104110417C410040B
:1016A0000818000010041FFC1104110017C01000DE
:1016B0000800000003E00C181004100410441C780B
:1016C0000040000010041FFC108400800080108483
:1016D0001FFC10040000100410041FFC1004100470
:1016E0000000000000030001100110011FFE1000A7
:1016F0001000000010041FFC110403801464181C67
:101700001004000010041FFC100400040004000476
:10171000000C000010041FFC1F0000FC1F001FFC39
:101720001004000010041FFC0C04030000E010185B
:101730001FFC100007F0080810041004100408082B
:1017400007F0000010041FFC10841080108010802F
:101750000F00000007F0081810241024101C080ABD
:1017600007F2000010041FFC1104110011C0113019
:101770000E0C000400000E1C110410841084104490
:101780001C3800001800100010041FFC100410008A
:101790001800000010001FF81004000400041004DA
:1017A0001FF8100010001E0011E0001C00701380D4
:1017B0001C0010001FC0103C00E01F0000E0103CA7
:1017C0001FC000001004180C163401C001C01634EC
:1017D000180C100410001C00130400FC13041C005F
:1017E000100000000804101C1064108413041C0472
:1017F000101800000000000000007FFE40024002C0
:1018000040020000000030000C0003800060001C5B
:101810000003000000004002400240027FFE000082
:1018200000000000000000002000400040004000D8
:101830002000000000010001000100010001000182
:1018400000010001000040004000200000000000F6
:1018500000000000000000980124014401440144FC
:1018600000FC000410001FFC008801040104008833
:1018700000700000000000700088010401040104F1
:1018800000880000000000700088010401041108B5
:101890001FFC0004000000F801440144014401441D
:1018A00000C800000000010401040FFC1104110431
:1018B00011001800000000D601290129012901C9E1
:1018C0000106000010041FFC008401000100010457
:1018D00000FC000400000104190419FC00040004C9
:1018E000000000000000000300010101190119FEC1
:1018F0000000000010041FFC0024004001B4010C93
:10190000010400000000100410041FFC0004000487
:1019100000000000010401FC0104010001FC0104BD
:10192000010000FC010401FC00840100010001042D
:1019300000FC0004000000F801040104010401049B
:1019400000F80000010101FF008501040104008886
:10195000007000000000007000880104010401050F
:1019600001FF00010104010401FC008401040100E5
:1019700001800000000000CC012401240124012486
:101980000198000000000100010007F801040104B3
:1019900000000000010001F8000400040004010838
:1019A00001FC0004010001800170000C00100160C6
:1019B0000180010001F0010C003001C00030010C79
:1019C00001F0010000000104018C00740170018C21
:1019D00001040000010101810171000E0018016085
:1019E0000180010000000184010C013401440184E4
:1019F000010C0000000000000000000001003EFC9F
:101A0000400240020000000000000000FFFF000054
:101A1000000000000000400240023EFC0100000007
:101A200000000000000060008000800040004000D6
:101A300020002000541A040800A001201800000013
:101A4000C40104086C1A040818A00120600A0000F0
:101A5000E001040800000000007A030A0000000012
:0C1A600000000000010203040607080952
:040000050804018961
:00000001FF
